:100000000C945D000C947A000C947A000C947A00A5
:100010000C947A000C947A000C947A000C947A0078
:100020000C947A000C947A000C947A000C947A0068
:100030000C947A000C947A000C947A000C947A0058
:100040000C941C020C947A000C947A000C947A00A4
:100050000C947A000C947A000C947A000C947A0038
:100060000C947A000C947A00000000080002010051
:100070000003040700000000000000000000000072
:10008000250028002B0000000000240027002A0083
:10009000040404040404040402020202020203032E
:1000A0000303030301020408102040800102040836
:1000B0001020010204081020690311241FBECFEF95
:1000C000D8E0DEBFCDBF21E0A0E0B1E001C01D92CD
:1000D000A332B207E1F710E0CDE5D0E004C02197EC
:1000E000FE010E94D303CC35D107C9F70E946602F6
:1000F0000C940F040C94000090E0FC01EC55FF4FB1
:10010000249180579F4FFC018491882399F090E0BF
:10011000880F991FFC01EA57FF4FA591B491FC018C
:10012000E458FF4F859194918FB7F894EC91E22BAE
:10013000EC938FBF089590E0FC01E859FF4F2491A4
:10014000FC01EC55FF4F3491FC01E057FF4FE49167
:10015000EE23C9F0222339F0233001F1A8F4213035
:1001600019F1223029F1F0E0EE0FFF1FE458FF4FA4
:10017000A591B4918FB7F894EC91611126C0309598
:100180003E233C938FBF08952730A9F02830C9F053
:10019000243049F7809180008F7D03C080918000DA
:1001A0008F7780938000DFCF84B58F7784BDDBCFDE
:1001B00084B58F7DFBCF8091B0008F778093B000A6
:1001C000D2CF8091B0008F7DF9CF3E2BDACFCF9385
:1001D000DF93EC018091110190911201029749F493
:1001E000C130D10509F43BC06CF560E0209709F4FB
:1001F00037C08091110190911201049749F4C130E8
:10020000D10509F45CC00CF037C0209709F442C056
:100210008091110190911201059709F0E5C0CA3053
:10022000D10508F0E1C0FE01E85EFE4F0C94D30357
:10023000770183019401AA01C501C701CE01DA014A
:10024000EB01F201C230D105A9F060E0C330D10565
:1002500081F6809115010E949B0060E006C061E07C
:10026000809115010E949B0061E0809117010E941E
:100270009B00BFCF61E0EDCFC230D10539F1C33073
:10028000D10509F0C5CF61E0809115010E949B0066
:1002900060E022C061E0809115010E949B0060E057
:1002A000809117010E949B0061E0809119010E94DA
:1002B0009B0060E080911B010E949B00A9CF60E041
:1002C000809115010E949B0061E0EACF60E080917F
:1002D00015010E949B0061E0809117010E949B0024
:1002E00060E0809119010E949B0061E0E3CF60E033
:1002F000809115010E949B0061E0809117010E948E
:100300009B0061E00BC060E0809115010E949B00A2
:1003100061E0809117010E949B0060E080911901CB
:100320000E949B0060E010C060E0809115010E9477
:100330009B0061E0809117010E949B0060E080912A
:1003400019010E949B0061E080911B010E949B00AB
:1003500061E015C060E0809115010E949B0061E0A2
:10036000809117010E949B0060E0809119010E941A
:100370009B0061E080911B010E949B0060E08091E6
:100380001D01DF91CF910C949B0061E0E4CF61E00F
:10039000809115010E949B0060E0E2CF61E08091B6
:1003A00015010E949B0060E0809117010E949B0054
:1003B00061E0DBCF61E0809115010E949B0060E06D
:1003C000809117010E949B0061E0809119010E94B9
:1003D0009B0060E0CFCF61E0809115010E949B00FF
:1003E00060E08BCF60E0F8CFDF91CF9108953FB709
:1003F000F8948091050190910601A0910701B091B8
:10040000080126B5A89B05C02F3F19F00196A11D34
:10041000B11D3FBFBA2FA92F982F8827BC01CD014E
:10042000620F711D811D911D42E0660F771F881FAD
:10043000991F4A95D1F708951F920F920FB60F9208
:1004400011242F933F938F939F93AF93BF938091EA
:10045000010190910201A0910301B091040130913A
:10046000000123E0230F2D3758F50196A11DB11D82
:10047000209300018093010190930201A093030156
:10048000B09304018091050190910601A0910701AC
:10049000B09108010196A11DB11D809305019093B3
:1004A0000601A0930701B0930801BF91AF919F91FE
:1004B0008F913F912F910F900FBE0F901F90189525
:1004C00026E8230F0296A11DB11DD2CF789484B5E2
:1004D000826084BD84B5816084BD85B5826085BD40
:1004E00085B5816085BD80916E00816080936E00CE
:1004F00010928100809181008260809381008091C0
:100500008100816080938100809180008160809370
:1005100080008091B10084608093B1008091B00030
:1005200081608093B00080917A00846080937A002B
:1005300080917A00826080937A0080917A00816055
:1005400080937A0080917A00806880937A0010927C
:10055000C10020910F0130911001032E000C440BBB
:10056000550B60E077E883E993E00E94B403CA0189
:10057000B90128EE33E040E050E00E94B40320933C
:100580000B0130930C0140930D0150930E01882410
:100590008394912C0AE010E024E0A22EB12CC0E05C
:1005A000D0E090920A01809209010E94F701C09068
:1005B0001F01D0902001E0902101F09022012B0139
:1005C0003C014C185D086E087F08C0900B01D0906C
:1005D0000C01E0900D01F0900E014C145D046E04CE
:1005E0007F0418F360931F01709320018093210111
:1005F000909322018091130190911401209109019F
:1006000030910A012130310509F451C0892B09F4D8
:1006100045C08091130190911401019790931401AA
:100620008093130180911301909114012091110185
:1006300030911201B5012530310509F4B8010E944D
:10064000A0030E94E7000E94F7012B013C0188EE05
:10065000C82E83E0D82EE12CF12C0E94F7016419FA
:10066000750986099709683E734081059105A8F3CD
:1006700021E0C21AD108E108F10888EE480E83E0B3
:10068000581E611C711CC114D104E104F10429F746
:10069000209709F486CF0E94000083CF80910F013C
:1006A000909110019093140180931301B2CF0196A1
:1006B000909314018093130120910F013091100148
:1006C0008217930709F0AECF109214011092130114
:1006D000A9CF0F931F93CF93DF93C9E0D1E01B867F
:1006E0001A86198218821E8A1F8A188E198E88EC23
:1006F00090E09F838E8382E090E09D878C8783E0EB
:1007000090E09F878E8704E010E0198B088B85E0CE
:1007100090E09B8B8A8B82E00E947C008E850E94F9
:100720007C0088890E947C008A890E947C001D8A46
:100730001C8A19870887DF91CF911F910F91089527
:1007400097FB072E16F4009407D077FD09D00E947E
:10075000D90307FC05D03EF4909581959F4F0895ED
:10076000709561957F4F0895052E97FB1EF40094B8
:100770000E94CB0357FD07D00E94ED0307FC03D076
:100780004EF40C94CB0350954095309521953F4FF6
:100790004F4F5F4F089590958095709561957F4F6D
:1007A0008F4F9F4F0895EE0FFF1F0590F491E02D9E
:1007B0000994AA1BBB1B51E107C0AA1FBB1FA617A8
:1007C000B70710F0A61BB70B881F991F5A95A9F7FA
:1007D00080959095BC01CD010895A1E21A2EAA1B27
:1007E000BB1BFD010DC0AA1FBB1FEE1FFF1FA217E1
:1007F000B307E407F50720F0A21BB30BE40BF50BDE
:10080000661F771F881F991F1A9469F76095709566
:10081000809590959B01AC01BD01CF010895F8949E
:02082000FFCF08
:00000001FF
